{
	"TBOS Token/TBOS.sol": {
		"SafeMath": {
			"abi": [
				{
					"constant": true,
					"inputs": [
						{
							"name": "a",
							"type": "uint256"
						},
						{
							"name": "b",
							"type": "uint256"
						}
					],
					"name": "safeSub",
					"outputs": [
						{
							"name": "c",
							"type": "uint256"
						}
					],
					"payable": false,
					"stateMutability": "view",
					"type": "function"
				},
				{
					"constant": true,
					"inputs": [
						{
							"name": "a",
							"type": "uint256"
						},
						{
							"name": "b",
							"type": "uint256"
						}
					],
					"name": "safeDiv",
					"outputs": [
						{
							"name": "c",
							"type": "uint256"
						}
					],
					"payable": false,
					"stateMutability": "view",
					"type": "function"
				},
				{
					"constant": true,
					"inputs": [
						{
							"name": "a",
							"type": "uint256"
						},
						{
							"name": "b",
							"type": "uint256"
						}
					],
					"name": "safeMul",
					"outputs": [
						{
							"name": "c",
							"type": "uint256"
						}
					],
					"payable": false,
					"stateMutability": "view",
					"type": "function"
				},
				{
					"constant": true,
					"inputs": [
						{
							"name": "a",
							"type": "uint256"
						},
						{
							"name": "b",
							"type": "uint256"
						}
					],
					"name": "safeAdd",
					"outputs": [
						{
							"name": "c",
							"type": "uint256"
						}
					],
					"payable": false,
					"stateMutability": "view",
					"type": "function"
				}
			],
			"devdoc": {
				"methods": {}
			},
			"evm": {
				"assembly": "    /* \"TBOS Token/TBOS.sol\":29:661  contract SafeMath { //calling the safemath interface to allow us to use mathematical functions in the smart contract\r... */\n  mstore(0x40, 0x80)\n  callvalue\n    /* \"--CODEGEN--\":8:17   */\n  dup1\n    /* \"--CODEGEN--\":5:7   */\n  iszero\n  tag_1\n  jumpi\n    /* \"--CODEGEN--\":30:31   */\n  0x0\n    /* \"--CODEGEN--\":27:28   */\n  dup1\n    /* \"--CODEGEN--\":20:32   */\n  revert\n    /* \"--CODEGEN--\":5:7   */\ntag_1:\n    /* \"TBOS Token/TBOS.sol\":29:661  contract SafeMath { //calling the safemath interface to allow us to use mathematical functions in the smart contract\r... */\n  pop\n  dataSize(sub_0)\n  dup1\n  dataOffset(sub_0)\n  0x0\n  codecopy\n  0x0\n  return\nstop\n\nsub_0: assembly {\n        /* \"TBOS Token/TBOS.sol\":29:661  contract SafeMath { //calling the safemath interface to allow us to use mathematical functions in the smart contract\r... */\n      mstore(0x40, 0x80)\n      jumpi(tag_1, lt(calldatasize, 0x4))\n      calldataload(0x0)\n      0x100000000000000000000000000000000000000000000000000000000\n      swap1\n      div\n      0xffffffff\n      and\n      dup1\n      0xa293d1e8\n      eq\n      tag_2\n      jumpi\n      dup1\n      0xb5931f7c\n      eq\n      tag_3\n      jumpi\n      dup1\n      0xd05c78da\n      eq\n      tag_4\n      jumpi\n      dup1\n      0xe6cb9013\n      eq\n      tag_5\n      jumpi\n    tag_1:\n      0x0\n      dup1\n      revert\n        /* \"TBOS Token/TBOS.sol\":279:395  function safeSub(uint a, uint b) public pure returns (uint c) {\r... */\n    tag_2:\n      callvalue\n        /* \"--CODEGEN--\":8:17   */\n      dup1\n        /* \"--CODEGEN--\":5:7   */\n      iszero\n      tag_6\n      jumpi\n        /* \"--CODEGEN--\":30:31   */\n      0x0\n        /* \"--CODEGEN--\":27:28   */\n      dup1\n        /* \"--CODEGEN--\":20:32   */\n      revert\n        /* \"--CODEGEN--\":5:7   */\n    tag_6:\n        /* \"TBOS Token/TBOS.sol\":279:395  function safeSub(uint a, uint b) public pure returns (uint c) {\r... */\n      pop\n      tag_7\n      0x4\n      dup1\n      calldatasize\n      sub\n      dup2\n      add\n      swap1\n      dup1\n      dup1\n      calldataload\n      swap1\n      0x20\n      add\n      swap1\n      swap3\n      swap2\n      swap1\n      dup1\n      calldataload\n      swap1\n      0x20\n      add\n      swap1\n      swap3\n      swap2\n      swap1\n      pop\n      pop\n      pop\n      jump(tag_8)\n    tag_7:\n      mload(0x40)\n      dup1\n      dup3\n      dup2\n      mstore\n      0x20\n      add\n      swap2\n      pop\n      pop\n      mload(0x40)\n      dup1\n      swap2\n      sub\n      swap1\n      return\n        /* \"TBOS Token/TBOS.sol\":543:658  function safeDiv(uint a, uint b) public pure returns (uint c) {\r... */\n    tag_3:\n      callvalue\n        /* \"--CODEGEN--\":8:17   */\n      dup1\n        /* \"--CODEGEN--\":5:7   */\n      iszero\n      tag_9\n      jumpi\n        /* \"--CODEGEN--\":30:31   */\n      0x0\n        /* \"--CODEGEN--\":27:28   */\n      dup1\n        /* \"--CODEGEN--\":20:32   */\n      revert\n        /* \"--CODEGEN--\":5:7   */\n    tag_9:\n        /* \"TBOS Token/TBOS.sol\":543:658  function safeDiv(uint a, uint b) public pure returns (uint c) {\r... */\n      pop\n      tag_10\n      0x4\n      dup1\n      calldatasize\n      sub\n      dup2\n      add\n      swap1\n      dup1\n      dup1\n      calldataload\n      swap1\n      0x20\n      add\n      swap1\n      swap3\n      swap2\n      swap1\n      dup1\n      calldataload\n      swap1\n      0x20\n      add\n      swap1\n      swap3\n      swap2\n      swap1\n      pop\n      pop\n      pop\n      jump(tag_11)\n    tag_10:\n      mload(0x40)\n      dup1\n      dup3\n      dup2\n      mstore\n      0x20\n      add\n      swap2\n      pop\n      pop\n      mload(0x40)\n      dup1\n      swap2\n      sub\n      swap1\n      return\n        /* \"TBOS Token/TBOS.sol\":404:534  function safeMul(uint a, uint b) public pure returns (uint c) {\r... */\n    tag_4:\n      callvalue\n        /* \"--CODEGEN--\":8:17   */\n      dup1\n        /* \"--CODEGEN--\":5:7   */\n      iszero\n      tag_12\n      jumpi\n        /* \"--CODEGEN--\":30:31   */\n      0x0\n        /* \"--CODEGEN--\":27:28   */\n      dup1\n        /* \"--CODEGEN--\":20:32   */\n      revert\n        /* \"--CODEGEN--\":5:7   */\n    tag_12:\n        /* \"TBOS Token/TBOS.sol\":404:534  function safeMul(uint a, uint b) public pure returns (uint c) {\r... */\n      pop\n      tag_13\n      0x4\n      dup1\n      calldatasize\n      sub\n      dup2\n      add\n      swap1\n      dup1\n      dup1\n      calldataload\n      swap1\n      0x20\n      add\n      swap1\n      swap3\n      swap2\n      swap1\n      dup1\n      calldataload\n      swap1\n      0x20\n      add\n      swap1\n      swap3\n      swap2\n      swap1\n      pop\n      pop\n      pop\n      jump(tag_14)\n    tag_13:\n      mload(0x40)\n      dup1\n      dup3\n      dup2\n      mstore\n      0x20\n      add\n      swap2\n      pop\n      pop\n      mload(0x40)\n      dup1\n      swap2\n      sub\n      swap1\n      return\n        /* \"TBOS Token/TBOS.sol\":154:270  function safeAdd(uint a, uint b) public pure returns (uint c) {\r... */\n    tag_5:\n      callvalue\n        /* \"--CODEGEN--\":8:17   */\n      dup1\n        /* \"--CODEGEN--\":5:7   */\n      iszero\n      tag_15\n      jumpi\n        /* \"--CODEGEN--\":30:31   */\n      0x0\n        /* \"--CODEGEN--\":27:28   */\n      dup1\n        /* \"--CODEGEN--\":20:32   */\n      revert\n        /* \"--CODEGEN--\":5:7   */\n    tag_15:\n        /* \"TBOS Token/TBOS.sol\":154:270  function safeAdd(uint a, uint b) public pure returns (uint c) {\r... */\n      pop\n      tag_16\n      0x4\n      dup1\n      calldatasize\n      sub\n      dup2\n      add\n      swap1\n      dup1\n      dup1\n      calldataload\n      swap1\n      0x20\n      add\n      swap1\n      swap3\n      swap2\n      swap1\n      dup1\n      calldataload\n      swap1\n      0x20\n      add\n      swap1\n      swap3\n      swap2\n      swap1\n      pop\n      pop\n      pop\n      jump(tag_17)\n    tag_16:\n      mload(0x40)\n      dup1\n      dup3\n      dup2\n      mstore\n      0x20\n      add\n      swap2\n      pop\n      pop\n      mload(0x40)\n      dup1\n      swap2\n      sub\n      swap1\n      return\n        /* \"TBOS Token/TBOS.sol\":279:395  function safeSub(uint a, uint b) public pure returns (uint c) {\r... */\n    tag_8:\n        /* \"TBOS Token/TBOS.sol\":333:339  uint c */\n      0x0\n        /* \"TBOS Token/TBOS.sol\":365:366  a */\n      dup3\n        /* \"TBOS Token/TBOS.sol\":360:361  b */\n      dup3\n        /* \"TBOS Token/TBOS.sol\":360:366  b <= a */\n      gt\n      iszero\n        /* \"TBOS Token/TBOS.sol\":352:367  require(b <= a) */\n      iszero\n      iszero\n      tag_19\n      jumpi\n      0x0\n      dup1\n      revert\n    tag_19:\n        /* \"TBOS Token/TBOS.sol\":386:387  b */\n      dup2\n        /* \"TBOS Token/TBOS.sol\":382:383  a */\n      dup4\n        /* \"TBOS Token/TBOS.sol\":382:387  a - b */\n      sub\n        /* \"TBOS Token/TBOS.sol\":378:387  c = a - b */\n      swap1\n      pop\n        /* \"TBOS Token/TBOS.sol\":279:395  function safeSub(uint a, uint b) public pure returns (uint c) {\r... */\n      swap3\n      swap2\n      pop\n      pop\n      jump\t// out\n        /* \"TBOS Token/TBOS.sol\":543:658  function safeDiv(uint a, uint b) public pure returns (uint c) {\r... */\n    tag_11:\n        /* \"TBOS Token/TBOS.sol\":597:603  uint c */\n      0x0\n        /* \"TBOS Token/TBOS.sol\":628:629  0 */\n      dup1\n        /* \"TBOS Token/TBOS.sol\":624:625  b */\n      dup3\n        /* \"TBOS Token/TBOS.sol\":624:629  b > 0 */\n      gt\n        /* \"TBOS Token/TBOS.sol\":616:630  require(b > 0) */\n      iszero\n      iszero\n      tag_21\n      jumpi\n      0x0\n      dup1\n      revert\n    tag_21:\n        /* \"TBOS Token/TBOS.sol\":649:650  b */\n      dup2\n        /* \"TBOS Token/TBOS.sol\":645:646  a */\n      dup4\n        /* \"TBOS Token/TBOS.sol\":645:650  a / b */\n      dup2\n      iszero\n      iszero\n      tag_22\n      jumpi\n      invalid\n    tag_22:\n      div\n        /* \"TBOS Token/TBOS.sol\":641:650  c = a / b */\n      swap1\n      pop\n        /* \"TBOS Token/TBOS.sol\":543:658  function safeDiv(uint a, uint b) public pure returns (uint c) {\r... */\n      swap3\n      swap2\n      pop\n      pop\n      jump\t// out\n        /* \"TBOS Token/TBOS.sol\":404:534  function safeMul(uint a, uint b) public pure returns (uint c) {\r... */\n    tag_14:\n        /* \"TBOS Token/TBOS.sol\":458:464  uint c */\n      0x0\n        /* \"TBOS Token/TBOS.sol\":485:486  b */\n      dup2\n        /* \"TBOS Token/TBOS.sol\":481:482  a */\n      dup4\n        /* \"TBOS Token/TBOS.sol\":481:486  a * b */\n      mul\n        /* \"TBOS Token/TBOS.sol\":477:486  c = a * b */\n      swap1\n      pop\n        /* \"TBOS Token/TBOS.sol\":510:511  0 */\n      0x0\n        /* \"TBOS Token/TBOS.sol\":505:506  a */\n      dup4\n        /* \"TBOS Token/TBOS.sol\":505:511  a == 0 */\n      eq\n        /* \"TBOS Token/TBOS.sol\":505:525  a == 0 || c / a == b */\n      dup1\n      tag_24\n      jumpi\n      pop\n        /* \"TBOS Token/TBOS.sol\":524:525  b */\n      dup2\n        /* \"TBOS Token/TBOS.sol\":519:520  a */\n      dup4\n        /* \"TBOS Token/TBOS.sol\":515:516  c */\n      dup3\n        /* \"TBOS Token/TBOS.sol\":515:520  c / a */\n      dup2\n      iszero\n      iszero\n      tag_25\n      jumpi\n      invalid\n    tag_25:\n      div\n        /* \"TBOS Token/TBOS.sol\":515:525  c / a == b */\n      eq\n        /* \"TBOS Token/TBOS.sol\":505:525  a == 0 || c / a == b */\n    tag_24:\n        /* \"TBOS Token/TBOS.sol\":497:526  require(a == 0 || c / a == b) */\n      iszero\n      iszero\n      tag_26\n      jumpi\n      0x0\n      dup1\n      revert\n    tag_26:\n        /* \"TBOS Token/TBOS.sol\":404:534  function safeMul(uint a, uint b) public pure returns (uint c) {\r... */\n      swap3\n      swap2\n      pop\n      pop\n      jump\t// out\n        /* \"TBOS Token/TBOS.sol\":154:270  function safeAdd(uint a, uint b) public pure returns (uint c) {\r... */\n    tag_17:\n        /* \"TBOS Token/TBOS.sol\":208:214  uint c */\n      0x0\n        /* \"TBOS Token/TBOS.sol\":235:236  b */\n      dup2\n        /* \"TBOS Token/TBOS.sol\":231:232  a */\n      dup4\n        /* \"TBOS Token/TBOS.sol\":231:236  a + b */\n      add\n        /* \"TBOS Token/TBOS.sol\":227:236  c = a + b */\n      swap1\n      pop\n        /* \"TBOS Token/TBOS.sol\":260:261  a */\n      dup3\n        /* \"TBOS Token/TBOS.sol\":255:256  c */\n      dup2\n        /* \"TBOS Token/TBOS.sol\":255:261  c >= a */\n      lt\n      iszero\n        /* \"TBOS Token/TBOS.sol\":247:262  require(c >= a) */\n      iszero\n      iszero\n      tag_28\n      jumpi\n      0x0\n      dup1\n      revert\n    tag_28:\n        /* \"TBOS Token/TBOS.sol\":154:270  function safeAdd(uint a, uint b) public pure returns (uint c) {\r... */\n      swap3\n      swap2\n      pop\n      pop\n      jump\t// out\n\n    auxdata: 0xa165627a7a72305820ac2fcfaa5087ded0076a566cdb86a41a22ebe715e8544a356314c695912d16690029\n}\n",
				"bytecode": {
					"linkReferences": {},
					"object": "608060405234801561001057600080fd5b5061024c806100206000396000f300608060405260043610610062576000357c0100000000000000000000000000000000000000000000000000000000900463ffffffff168063a293d1e814610067578063b5931f7c146100b2578063d05c78da146100fd578063e6cb901314610148575b600080fd5b34801561007357600080fd5b5061009c6004803603810190808035906020019092919080359060200190929190505050610193565b6040518082815260200191505060405180910390f35b3480156100be57600080fd5b506100e760048036038101908080359060200190929190803590602001909291905050506101af565b6040518082815260200191505060405180910390f35b34801561010957600080fd5b5061013260048036038101908080359060200190929190803590602001909291905050506101d3565b6040518082815260200191505060405180910390f35b34801561015457600080fd5b5061017d6004803603810190808035906020019092919080359060200190929190505050610204565b6040518082815260200191505060405180910390f35b60008282111515156101a457600080fd5b818303905092915050565b600080821115156101bf57600080fd5b81838115156101ca57fe5b04905092915050565b6000818302905060008314806101f357508183828115156101f057fe5b04145b15156101fe57600080fd5b92915050565b6000818301905082811015151561021a57600080fd5b929150505600a165627a7a72305820ac2fcfaa5087ded0076a566cdb86a41a22ebe715e8544a356314c695912d16690029",
					"opcodes": "PUSH1 0x80 PUSH1 0x40 MSTORE CALLVALUE DUP1 ISZERO PUSH2 0x10 JUMPI PUSH1 0x0 DUP1 REVERT JUMPDEST POP PUSH2 0x24C DUP1 PUSH2 0x20 PUSH1 0x0 CODECOPY PUSH1 0x0 RETURN STOP PUSH1 0x80 PUSH1 0x40 MSTORE PUSH1 0x4 CALLDATASIZE LT PUSH2 0x62 JUMPI PUSH1 0x0 CALLDATALOAD PUSH29 0x100000000000000000000000000000000000000000000000000000000 SWAP1 DIV PUSH4 0xFFFFFFFF AND DUP1 PUSH4 0xA293D1E8 EQ PUSH2 0x67 JUMPI DUP1 PUSH4 0xB5931F7C EQ PUSH2 0xB2 JUMPI DUP1 PUSH4 0xD05C78DA EQ PUSH2 0xFD JUMPI DUP1 PUSH4 0xE6CB9013 EQ PUSH2 0x148 JUMPI JUMPDEST PUSH1 0x0 DUP1 REVERT JUMPDEST CALLVALUE DUP1 ISZERO PUSH2 0x73 JUMPI PUSH1 0x0 DUP1 REVERT JUMPDEST POP PUSH2 0x9C PUSH1 0x4 DUP1 CALLDATASIZE SUB DUP2 ADD SWAP1 DUP1 DUP1 CALLDATALOAD SWAP1 PUSH1 0x20 ADD SWAP1 SWAP3 SWAP2 SWAP1 DUP1 CALLDATALOAD SWAP1 PUSH1 0x20 ADD SWAP1 SWAP3 SWAP2 SWAP1 POP POP POP PUSH2 0x193 JUMP JUMPDEST PUSH1 0x40 MLOAD DUP1 DUP3 DUP2 MSTORE PUSH1 0x20 ADD SWAP2 POP POP PUSH1 0x40 MLOAD DUP1 SWAP2 SUB SWAP1 RETURN JUMPDEST CALLVALUE DUP1 ISZERO PUSH2 0xBE JUMPI PUSH1 0x0 DUP1 REVERT JUMPDEST POP PUSH2 0xE7 PUSH1 0x4 DUP1 CALLDATASIZE SUB DUP2 ADD SWAP1 DUP1 DUP1 CALLDATALOAD SWAP1 PUSH1 0x20 ADD SWAP1 SWAP3 SWAP2 SWAP1 DUP1 CALLDATALOAD SWAP1 PUSH1 0x20 ADD SWAP1 SWAP3 SWAP2 SWAP1 POP POP POP PUSH2 0x1AF JUMP JUMPDEST PUSH1 0x40 MLOAD DUP1 DUP3 DUP2 MSTORE PUSH1 0x20 ADD SWAP2 POP POP PUSH1 0x40 MLOAD DUP1 SWAP2 SUB SWAP1 RETURN JUMPDEST CALLVALUE DUP1 ISZERO PUSH2 0x109 JUMPI PUSH1 0x0 DUP1 REVERT JUMPDEST POP PUSH2 0x132 PUSH1 0x4 DUP1 CALLDATASIZE SUB DUP2 ADD SWAP1 DUP1 DUP1 CALLDATALOAD SWAP1 PUSH1 0x20 ADD SWAP1 SWAP3 SWAP2 SWAP1 DUP1 CALLDATALOAD SWAP1 PUSH1 0x20 ADD SWAP1 SWAP3 SWAP2 SWAP1 POP POP POP PUSH2 0x1D3 JUMP JUMPDEST PUSH1 0x40 MLOAD DUP1 DUP3 DUP2 MSTORE PUSH1 0x20 ADD SWAP2 POP POP PUSH1 0x40 MLOAD DUP1 SWAP2 SUB SWAP1 RETURN JUMPDEST CALLVALUE DUP1 ISZERO PUSH2 0x154 JUMPI PUSH1 0x0 DUP1 REVERT JUMPDEST POP PUSH2 0x17D PUSH1 0x4 DUP1 CALLDATASIZE SUB DUP2 ADD SWAP1 DUP1 DUP1 CALLDATALOAD SWAP1 PUSH1 0x20 ADD SWAP1 SWAP3 SWAP2 SWAP1 DUP1 CALLDATALOAD SWAP1 PUSH1 0x20 ADD SWAP1 SWAP3 SWAP2 SWAP1 POP POP POP PUSH2 0x204 JUMP JUMPDEST PUSH1 0x40 MLOAD DUP1 DUP3 DUP2 MSTORE PUSH1 0x20 ADD SWAP2 POP POP PUSH1 0x40 MLOAD DUP1 SWAP2 SUB SWAP1 RETURN JUMPDEST PUSH1 0x0 DUP3 DUP3 GT ISZERO ISZERO ISZERO PUSH2 0x1A4 JUMPI PUSH1 0x0 DUP1 REVERT JUMPDEST DUP2 DUP4 SUB SWAP1 POP SWAP3 SWAP2 POP POP JUMP JUMPDEST PUSH1 0x0 DUP1 DUP3 GT ISZERO ISZERO PUSH2 0x1BF JUMPI PUSH1 0x0 DUP1 REVERT JUMPDEST DUP2 DUP4 DUP2 ISZERO ISZERO PUSH2 0x1CA JUMPI INVALID JUMPDEST DIV SWAP1 POP SWAP3 SWAP2 POP POP JUMP JUMPDEST PUSH1 0x0 DUP2 DUP4 MUL SWAP1 POP PUSH1 0x0 DUP4 EQ DUP1 PUSH2 0x1F3 JUMPI POP DUP2 DUP4 DUP3 DUP2 ISZERO ISZERO PUSH2 0x1F0 JUMPI INVALID JUMPDEST DIV EQ JUMPDEST ISZERO ISZERO PUSH2 0x1FE JUMPI PUSH1 0x0 DUP1 REVERT JUMPDEST SWAP3 SWAP2 POP POP JUMP JUMPDEST PUSH1 0x0 DUP2 DUP4 ADD SWAP1 POP DUP3 DUP2 LT ISZERO ISZERO ISZERO PUSH2 0x21A JUMPI PUSH1 0x0 DUP1 REVERT JUMPDEST SWAP3 SWAP2 POP POP JUMP STOP LOG1 PUSH6 0x627A7A723058 KECCAK256 0xac 0x2f 0xcf 0xaa POP DUP8 0xde 0xd0 SMOD PUSH11 0x566CDB86A41A22EBE715E8 SLOAD 0x4a CALLDATALOAD PUSH4 0x14C69591 0x2d AND PUSH10 0x290000000000000000 "
				},
				"gasEstimates": {
					"creation": {
						"codeDepositCost": "117600",
						"executionCost": "165",
						"totalCost": "117765"
					},
					"external": {
						"safeAdd(uint256,uint256)": "396",
						"safeDiv(uint256,uint256)": "374",
						"safeMul(uint256,uint256)": "432",
						"safeSub(uint256,uint256)": "330"
					}
				},
				"methodIdentifiers": {
					"safeAdd(uint256,uint256)": "e6cb9013",
					"safeDiv(uint256,uint256)": "b5931f7c",
					"safeMul(uint256,uint256)": "d05c78da",
					"safeSub(uint256,uint256)": "a293d1e8"
				}
			},
			"userdoc": {
				"methods": {}
			}
		}
	}
}